:020000021000EC
:108000000040002065060200A1060200A30602004F
:108010000000000000000000000000000000000060
:10802000000000000000000000000000A5060200A3
:108030000000000000000000A7060200A9060200E0
:10804000AB060200BDAC0100C9020200AB06020093
:10805000AB0602000000000065040200AB0602004F
:10806000AB06020031FE0100D5030200AB060200A0
:10807000AB060200AB060200AB060200AB06020034
:10808000AB060200AB060200AB060200AB06020024
:10809000AB060200D9EB0100BDF80100AB060200FF
:1080A000AB060200AB06020000000000000000006A
:1080B00000000000000000000000000000000000C0
:1080C00010B5064C2378002B07D1054B002B02D0AE
:1080D000044800E000BF0123237010BD38220020B7
:1080E0000000000090AA0200044B10B5002B03D042
:1080F0000349044800E000BF10BDC0460000000076
:108100003C22002090AA0200164B002B00D1144BF9
:108110009D46402292029A1A924600218B460F46B3
:108120001348144A121A11F02EFA0F4B002B00D0EC
:1081300098470E4B002B00D09847002000210400E8
:108140000D000D48002802D00C4800E000BF0CF0E4
:10815000BBFD2000290010F083FF0CF09FFDC046FE
:1081600000000800004000200000000000000000A7
:1081700030220020A42A002000000000000000009F
:1081800010B5034B00221978024802F069FF10BDB8
:10819000D22900205C22002013B500210C4802F0F7
:1081A000BFFFC1B201A80DF03AFDC822094C520030
:1081B00001A9200002F004FA01A80DF006FDFA2042
:1081C000400000F0C1FD20000EF063F913BDC04671
:1081D0005C22002044230020114B13B51B68002BA8
:1081E00004D1104B1A78104B1A7013BD012B02D119
:1081F0000C4B5A78F7E70D4901A80DF003FD0C4C24
:10820000782201A9200002F06BFA01A80DF0DDFC34
:10821000FA20400000F098FD20000EF03AF9E4E763
:108220000C20002008220020D2290020524F525258
:10823000442300200022044B84B01A60034A1368D0
:108240000133136004B07047082000200420002090
:108250000122044B84B01A60034A1368013313608F
:1082600004B0704708200020042000200122064BA3
:1082700052421A60054B02321A60054B84B002323A
:108280001A6004B07047C046082000205422002025
:1082900004200020F0B585B01F000AAB1B88060043
:1082A000029115000393002F1CD0282000F08EFEB1
:1082B0006B4604001989039BAAB200933B000DF0A2
:1082C00023FC336821005B683000984700280AD0FF
:1082D000002C05D020000DF02EFC200000F096FEB2
:1082E000024800E0024805B0F0BDC04616FCFFFFA2
:1082F00017FCFFFF7FB510251E4C00951E4B032277
:1083000002212000FFF7C6FF00951C4B032201212C
:108310002000FFF7BFFF00950121194B0522200027
:10832000FFF7B8FF174D29684B1C22D003A80DF0AA
:1083300069FCC822144C520003A9200002F040F945
:1083400003A80DF042FC642000F0FEFC20000EF0BB
:10835000A0F80E4E0E4C33682A689B001A51FFF7A6
:108360003BFF01235B4223606360A360E3603360F3
:108370002B607FBD282300206D8201003582010023
:108380005182010008200020442300200420002006
:108390000C20002010B50400034B036040300DF0AA
:1083A00014FC200010BDC04618980200094810B502
:1083B00000F01CF902220321074802F0D1FEFFF76A
:1083C00099FFFFF7DDFEFFF7E7FE642000F0BCFC3D
:1083D000F5E7C046582200205C22002010B5054C6D
:1083E000200000F043F8044A0449200011F06BF823
:1083F00010BDC0465822002000200020018401004A
:10840000EB23194A9B0010B5C2501C330400C0185E
:108410000DF0DBFBF1239B00E0180DF0D6FB84236D
:108420009B00E01801F046FA2000C530FF3000F054
:1084300065FF20008D30FF3001F002FA200065302A
:10844000FF3001F0FDF92000EC3001F0D5FE2000F6
:10845000D03002F0ABFA2000643007F047FB201D5B
:10846000FFF798FF200010BD149A02001423F0B506
:10847000040095B0009319221821043002F0CEFCBC
:10848000220027006432B43713211000119207F044
:1084900039FB38000EF07DFB2200B83210921E210D
:1084A000002210980DF0FAFF2000D03002F09EFA62
:1084B0002200EC3212920621494A129801F0C0FEC5
:1084C00020000026012365301A0000961121FF309C
:1084D00001F0C2F920008D300096012302221A21FA
:1084E000FF3001F0B9F925002000C535B530FF3562
:1084F0001A2302220121FF3002F036FB10990423D7
:108500003A22280000F0AAFF84229200A2181392B7
:1085100005231D22019300923B002A001099139815
:1085200001F0BEFB96229200129BA01813992A001C
:1085300001F090FD99229200A01839001C2202F04F
:1085400063FF19239F220F93013B0E93013B0D9371
:10855000013B0C93013B0B93013B0A93013B0993B5
:10856000013B0893013B0793013B0693013B0593B5
:10857000013B0493013B0393013B0293013B0193B5
:108580009200013BA01800930822013B07210DF047
:108590008DFFEB239B00E018390003F0D5FAF3239D
:1085A0009B00E0181D2102F025FBFD239B00E650F7
:1085B00011982670032110F07BFC2300220020007C
:1085C00008499C33A0321C6011605660064A803016
:1085D0005A610221012207F0F7FF200015B0F0BD1B
:1085E0002098020019580200035802000123F0B538
:1085F000067889B004001E4000D0ADE0FD20800563
:1086000000F0ACFC2300D0331800029300F080FA95
:1086100000F0A6F9282000F0D9FC050010300DF07C
:1086200070FB4E4B18202B6000F0D0FC07004C4B29
:108630000460082231000C300693079610F0A3FF67
:1086400006A9381D082210F082FF464B29007B61E5
:108650001223AF60EE60AB802E626E62029802F071
:108660003DF9002805D028000DF065FA280000F03B
:10867000CDFC0123227864201343237000F064FBB7
:10868000002523006533FF33180003930DF0E4FC4D
:1086900000283CD020008D30FF300DF0DDFC00289C
:1086A00035D00A2D33D06420013500F04DFB0A2D62
:1086B000E7D12D492D4800F027FCFD27EB23BF0013
:1086C0009B00E618E359002B1AD100F05DF8010079
:1086D00004A800F087FD05A80DF010F9012305AAF4
:1086E00004A900933000029B03F082FA05A80DF064
:1086F0006CFA04A80DF069FAED239B00E358E351EE
:108700002100039AEC31300003F018FCB9E7FD2595
:1087100015491648AD0000F0F7FB6659002E1BD135
:1087200000F032F8010004A800F05CFD05A80DF08F
:10873000E5F8EB239B00E01805AA029B04A900962C
:1087400003F056FA05A80DF040FA04A80DF03DFA22
:10875000ED239B00E358635109B0F0BDFD03000019
:108760008B5802004B58020000200020001C002003
:10877000BFF34F8F024B034ADA60BFF34F8FFEE720
:1087800000ED00E00400FA05F0B58DB005AF192248
:108790001549380010F0DBFE0022144B05245A71F5
:1087A00080225205566E0122250001940292039305
:1087B0000199300008F066F80800029907F0DCFF24
:1087C000019B03996B430193029B361A6B430293FF
:1087D000631E2C1B6C433C19225C1C1ECA54E7D13F
:1087E00008000DB0F0BDC04666A40200D3290020E9
:1087F000F0B597B018220021060010A810F0C3FEB3
:10880000132110A810F0A7FC032110A810F072FD8E
:108810004C4B1B68002B00D10133DBB202934A4A58
:10882000012300210BA807F009FE484B9E4200D906
:10883000002672B6464B64211D68464B30000793F4
:10884000052408F023F860435030281808900A21C6
:10885000300008F01BF80A2108F0FEF8614350319F
:108860006918099130000A2108F0F6F88023614365
:108870000024503169189B010A910193029B002B3F
:108880005DD0002500272E1F07AB9B190593032CF5
:1088900003D1802300249B01019307AB5B592E4A2F
:1088A00003936300D3180493002319000620584350
:1088B000049A16187678B4466246039EB25C102677
:1088C0009446049A105C62460641164202D001208A
:1088D000984001430133092BE8D1C9431F4B059A46
:1088E000090119401268039B934225D1312F23DCE3
:1088F00000210BA810F0DDFDFA23159A1199DB0079
:10890000106801421BD0013B002BF9D1019B0134BF
:108910005B000193FA230137E4B25B009F42B6D1BA
:108920000435102DAED1074B1B68002BA6D0029F3B
:10893000013FFBB20293A1E7019B1943D9E7FFF77F
:1089400017FFC04654260020F0FF0000E703000098
:108950001C200020B5A402007FA40200F01F00002C
:10896000F8B50023124C23600CF0E9FF002808D072
:10897000042120000CF0DFFF002801D00D4B236004
:10898000F8BD0122A12704250B4B0C491A6022686F
:10899000FF0048604E68002EFCD0DE591202013DF7
:1089A0003243002DF5D1226001225A60E8E7C0462B
:1089B00050260020ED5EBC0B00D00040FCD00040F3
:1089C0000B4B70B51C68002C10D0656D00F0C6FB19
:1089D000A36C002901D1834206D820000CF0E2FFED
:1089E000044920000CF0CCFF2C00ECE770BDC04621
:1089F0005C2600207C260020F0B593B007932A4B1C
:108A000004AC1E68049005910692002E4AD0274BB4
:108A1000258867881C6800230293002C2ED0636D84
:108A200023480393A36C9AB2A36C1B0C99B28542A2
:108A300014D12048824211D1002B01D0B9420BD170
:108A4000029B002B08D120000CF0ACFF1A4920003B
:108A50000CF096FF01230293039CDEE7002A01D06D
:108A60009542F9D1002B01D0B942F5D120000CF08C
:108A700099FF114920000CF083FFEDE70F4BEB1835
:108A8000012B0FD910233A00009329000C4B08A8A2
:108A90000DF03AF8336808A99B683000984708A899
:108AA0000DF049F813B0F0BD5826002088260020AC
:108AB000FE030000FF0300007C26002002FCFFFFF5
:108AC000F989010010B572B60B4B1C68002C08D058
:108AD00020000CF067FF0023E364084B2000E363F1
:108AE00010BD62B65C2000F071FA5C220021040027
:108AF00010F049FDEFE7C04680260020004000202E
:108B0000024B1878012318407047C046D92900202D
:108B1000F7B50600FFF7F4FF051E33D11A4C2660A7
:108B2000FFF7D0FF194B1A4918600CF029FFFFF727
:108B3000C9FF184B1860184B4363184B83632068B8
:108B400000280ED0C027164E2A0033001549009782
:108B5000FFF7A0FB009733002A0013492068FFF7B6
:108B600099FB0C2000F032FA0023838083710F4BB5
:108B700003600F4B836000F009FB01230D4A11785D
:108B80000B431370F7BDC046582600208C260020EA
:108B90007C26002084260020FC3F00206B5A020027
:108BA000F9890100FF030000FE0300004098020065
:108BB000C1890100D9290020F7B506000D00170072
:108BC0000193002802D100242000FEBD0029FAD024
:108BD000FFF778FF041EF6D0074B019A4363066047
:108BE00045608760054B002A00D0054BA36305490B
:108BF00020000CF0C5FEE7E7FC3F0020355A0200DC
:108C0000535A02007C260020024B18684342584108
:108C10007047C0467C260020002310B504499C0004
:108C20006258002A01D00133F9E76050100010BDEE
:108C300064260020002310B5044A99008C58844211
:108C400001D00133F9E70020885010BD64260020D0
:108C500010B50024084BA200D058002802D00368A9
:108C60005B6898470134062CF4D1044B1B68002B39
:108C700000D120BF10BDC046642600207C26002005
:108C8000F8B5FFF73DFF00281BD0294D2C68E36C99
:108C9000DA0717D502263343E3640423254F3868E7
:108CA000C26C1343C364636BC3630CF0A1FE3868EA
:108CB000416C03F040FD2868C36C334201D003F0DF
:108CC00074FDF8BD1C4F1D4E3A683168002A1ED154
:108CD00029602A688A4208D11B0706D52C60FFF755
:108CE000B7FF3B68002BFAD02B6029688C42E8D094
:108CF0003368994214D1124B4B63124B8B632000A3
:108D00000CF076FE2968626C4B6C20000DE0206D43
:108D1000B84203D1606D002800D002002A60D8E775
:108D20009C42ECD1002210004B6C03F0C3FCC8E75E
:108D30008C260020602600207C260020842600202F
:108D4000FC3F00206B5A020070B50500FFF7D8FE0B
:108D5000002803D1280010F0C1FA70BD0C4B1C682C
:108D6000E36CDB0706D5FFF7ADFE0A4B1860002861
:108D700000D0040000F0F2F92D18A56420000CF0DA
:108D800011FE054920000CF0FBFDFFF779FFE4E739
:108D90008C260020602600205C260020F0B51E4BAB
:108DA0001E4F1C683B6885B006000391002B30D035
:108DB000FFF7A6FE00282CD0E36CDB070ED5FFF7EB
:108DC00081FE174B051E186008D00CF0EBFD15490D
:108DD00028000CF0D5FD2C00FFF752FF039B20006C
:108DE0001B043343A3640CF0DDFD20000E490CF09E
:108DF000C7FD0E4B0024F318012B07D9C0230093A5
:108E0000039A0B4B31003868FFF744FA200005B095
:108E1000F0BD084CFAE7C0468C26002058260020FA
:108E2000602600207C2600208826002002FCFFFF10
:108E3000F989010016FCFFFF10B5FFF761FE00285D
:108E400009D0054C20680CF0ADFD044920680CF0F9
:108E500097FDFFF715FF10BD8C260020802600200F
:108E6000F7B507000D0000282ED0FFF749FE0028B7
:108E70002CD00724164E3068C36C1C4007D0154A0E
:108E8000290038000CF0A5FD00242000FEBD03F0F1
:108E900074FC02213268D36C1940019103D0032184
:108EA0008B43D364F1E701242343D3642800B847FC
:108EB0003268D36C1900A143D164019C5B07E4D5EF
:108EC00028000CF0BEFDE0E7034CDEE7034CDCE7D6
:108ED0008C260020435A020017FCFFFF16FCFFFF00
:108EE000020010B5014B12CB12C210BD902600201B
:108EF000034B1A68034B1A607E225A607047C046C3
:108F00001C2000209026002070B5104D2B78022BDD
:108F100018D0814218D90B1A072B15D90C0003233E
:108F200004431C4010D172B62A78094BD200D050AD
:108F3000981841600CF09FFD2B7801332B7062B6BE
:108F4000200070BD0348FCE70348FAE7DA29002057
:108F50009826002013FCFFFF17FCFFFF70B50021CF
:108F6000041C07F09BFD002828D1FE21201C890548
:108F700007F09EFD002821D104300BF0C9FE05004A
:108F80000F48401B08F074FD211C08F011FA07F08F
:108F9000C3FD03239843040028000BF0C3FE200008
:108FA0000BF0B6FE002804D1203C002CF7D1054878
:108FB00003E00119FFF7A8FF002070BD0248FCE79D
:108FC0000038002013FCFFFF17FCFFFF70B5060000
:108FD00000250C4B1B78AB4209DD0B49EB00C9188F
:108FE00030000CF050FD041E09D10135F1E73000CE
:108FF0000BF08EFE041E02D11420FFF7F9FB2000B7
:1090000070BDC046DA2900209826002070B50028DF
:1090100013D00D4B0D491C7800239C4210DDDA0063
:10902000555885420AD28A185268824206D980234E
:10903000043802681B061343036070BD0133ECE77C
:109040000BF070FEF9E7C046DA29002098260020D0
:1090500070B5051E14DD0B4E0B4C3368002B02D08F
:1090600020680FF0A2FFFA2120680024074B890036
:109070008361C462694335600FF09FFF200070BDBB
:109080000348FCE7A8260020D826002039910100DB
:1090900017FCFFFFF8B5114F06003D68002D0AD1FF
:1090A0003020FFF793FF040006F050FD0C4BA56144
:1090B0002360E5623C600B4D2B68002B09D110202A
:1090C000FFF784FF04000FF039FF20002C600FF041
:1090D0000FFF3000FFF7BCFFF8BDC046D8260020C8
:1090E000B89D0200D4260020014B18687047C04686
:1090F000A826002070B50D4C2368002B03D00C4B24
:109100001B68002B02D10620FFF7C4FF20680FF078
:1091100006FF02000749C3170D684E6852197341D4
:1091200020680A604B600FF000FF70BDD42600205D
:10913000D82600203022002010B5FFF7DBFF0024E6
:10914000054BA200D058002802D003681B6898473E
:1091500001340A2CF4D110BDAC26002010B5FFF765
:10916000C9FFFA22034B920018685968002307F0E0
:10917000B3FC10BD3022002010B5FFF7BBFF024B3F
:109180001868596810BDC046302200200B4B10B53E
:109190001B680400002B03D0094B1B68002B02D175
:1091A0000620FFF777FF0023064A99008858002819
:1091B00001D00133F9E78C5010BDC046D426002001
:1091C000D8260020AC260020002310B5044A9900C0
:1091D0008C58844201D00133F9E70020885010BD3B
:1091E000AC26002010B50400002902D00B78002B1B
:1091F00003D1034B2360200010BD0CF0EDFCFAE717
:1092000050980200F8B504000E00150000290AD09D
:109210000B78002B07D0002A05D0080097B210F079
:10922000F2F9874203D90B4B23602000F8BD681D7B
:10923000FFF7CCFE20600CF0BCFD23682A005F80A5
:1092400023683100181D10F082F923685D1900238E
:109250002B71EAE750980200014B03607047C0464B
:109260005098020010B50548054C20600CF0A4FD94
:10927000044A0549200010F026F910BD509802005C
:10928000DC26002000200020CB5B0200084B73B5D9
:109290001C680500002C0AD001002668083108224D
:1092A000684610F054F90CCD31682000884773BD32
:1092B000E026002010B5054C012120000CF070FDC7
:1092C000034A0449200010F0FEF810BDE4260020F7
:1092D000002000205D5D02000388074A10B50120D0
:1092E000934208D0834202D00020DB0703D41E2023
:1092F000FFF77EFA002010BDFFFF000010B504004C
:10930000034B08330360FFF795FC200010BDC046F7
:1093100098980200FA2270B5438992005343314A6B
:1093200031491400050038348B421BDC2F498B4235
:1093300018D82F49083C8B4214D82E49083C8B4240
:1093400010D82D49083C8B420CD82C49083C8B4244
:1093500008D82B49083C8B4204D82A4914008B4278
:1093600000D90834284B2A7B1E1D042A03D89E1CD2
:10937000022A00D81E00FA212068890007F0FCF9B3
:10938000337868812B7300222A2128000CF038FDE5
:10939000002801D01D4870BD10222B2128000CF0A0
:1093A0002FFD0028F6D101222D2128000CF028FDE8
:1093B0000028EFD101222E2128000CF021FD0028E9
:1093C000E8D172780E2128000CF01AFD0028E1D1B6
:1093D000012223792A211A4328000CF011FD0028CC
:1093E000D9D0D7E75898020000C4090000710200E4
:1093F00080380100204E0000102700008813000074
:10940000C4090000E204000095A602000EFCFFFF64
:109410007FB515000F226A4404001E001170002D54
:1094200016D0002B14DD012301890093006B01F09D
:10943000D1F9002802D0074804B070BD00902189FE
:1094400033002A00206B01F07BF90028F4D0F2E70A
:109450000148F1E70EFCFFFF17FCFFFFF7B5060020
:10946000002501931E4B14360833040003608580E9
:109470008571C581058245820F000092290018225E
:10948000300010F080F81C2130000FF064FE6B46B5
:109490009B880221A3806B461B8822002381142312
:1094A000A5712173A563A58763813E321378276375
:1094B0008B43F1310B401370230095729581013578
:1094C000221DD5870833A21DD5872000DD87FFF731
:1094D00021FF002802D1A3791D43A5712000FEBD04
:1094E0009898020030B50425837987B004002B4298
:1094F00004D1FFF791FBA3791D43A571A36AA2696B
:109500001B6800251A4208D106236A460121200063
:10951000FFF77EFF051E03D0114D280007B030BDB8
:109520006B460222042069469A561856237BD200C5
:109530005A43228202220978C00049B2C900594325
:1095400043436382A379E1819343A37120000CF02C
:1095500065FC0123A1881A0002A80CF0DCFBDCE703
:109560000EFCFFFFF8B50400FFF7BCFF0E22A35E60
:10957000794F5B42BB4251DA23003E331B789B0795
:109580004CD50125210028003E310B785A08904324
:1095900002000220AA40834313430B702000FFF710
:1095A000A1FF1022A35E5B42BB4248DA23003E3398
:1095B0001B785B0743D50125210028003E310B783D
:1095C0009A08904382000420834313430B702600C3
:1095D0002000FFF787FF1222A35E4836BB423EDA27
:1095E00023003E331B781B0739D5210001223E3171
:1095F0000B78D80882430820D200834313430B70B2
:109600003378032B3BD80133DBB23370012B00D00E
:109610008DE0230000224A331A8030E02000FFF75B
:1096200061FF0E22A35EC8225B42520000259342D6
:10963000B4DD23003E331B789B07A2D5AEE72000A4
:10964000FFF750FF1022A35EC8225B4252009342F4
:10965000BDDD23003E331B785B07ACD5B7E72000A8
:10966000FFF740FFC8231221625E5B009A4204DDCF
:1096700023003E331B781B07B7D5002DC0D13278AD
:10968000002A14D02100270001254A310B883E37DB
:1096900001339BB20B803878AC46054055D01D2B6A
:1096A00005D963469843002338700B80337020003F
:1096B0000CF020FC294A0723904244DD2000FFF7EC
:1096C00011FF0E23E25E264E52420323B2423ADBE2
:1096D000C8252000FFF706FF0E23E25EAD005242D0
:1096E0000423AA422FDC2000FFF7FCFE1023E25ED9
:1096F00002235242B24226DB2000FFF7F3FE102382
:10970000E25E01235242AA421DDC2000FFF7EAFE7E
:109710001223E25E0523B24215DB2000FFF7E2FED2
:109720001223E25E0623AA420DDC00230BE0042B89
:10973000A5D122003E321178033B0B431370002366
:109740004A3423800B331800F8BD092BAFD9013AF6
:109750000D803270ABE7C04670FEFFFFFF70020065
:10976000E0FCFFFF70B5C369C1681A68451D8AB087
:109770000400EB7F114255D0002B58D1EB7F082B12
:109780000DD90122A379134209D11343A371A188F2
:10979000130006A80CF0BFFAFFF7E0FC2062EB7F95
:1097A000012B23D80123A2791A421FD00025A188BA
:1097B000A571022202A80CF0AEFAA31DDE7F012ED5
:1097C00014D1FFF7CBFC2B00226A801A994100903C
:1097D0000191019BA188AB4203D1174B009A9A4299
:1097E00027D90123042206A80CF095FA0322A379B5
:1097F0001340012B14D1FFF7B1FC0023226A801A19
:109800009941994202D10D4B984209D90223A2797C
:10981000A1881343A3710522012306A80CF07BFA4B
:109820000AB070BD0B2BA9D80133EB77A6E7013B3B
:10983000FBE733000322D6E7E7030000DB05000067
:1098400010B50400034B08330360FFF7BDFC200094
:1098500010BDC046B0980200F0B5070000250E000C
:1098600085B002930AAB1B7808370393104B0400B2
:109870000833036001928580857129001822380021
:109880000FF081FE039A310038000FF069FC6B463F
:109890006A469B88127AA380A31DE671DA77631D5E
:1098A00025622000DD77FFF771FC200005B0F0BDD8
:1098B000B098020010B50400034B08330360FFF7B3
:1098C000B9F9200010BDC046209902007FB51500EF
:1098D0000F226A4404001E001170002D16D0002BC8
:1098E00014DD012301890093C06B00F073FF002891
:1098F00002D0074804B070BD0090218933002A00CF
:10990000E06B00F01DFF0028F4D0F2E70148F1E71A
:109910000EFCFFFF17FCFFFF002330B585B003AC42
:10992000217001890093050001332200C06B00F013
:1099300051FF002802D0094805B030BD2080298998
:10994000009002232200E86B00F0FAFE0028F2D11A
:10995000237860781B02184300B2EDE70EFCFFFF8E
:1099600013B56B46DC1D0023220023700133FFF783
:10997000ADFF002801D1207816BD0148FCE7C046A4
:109980000EFCFFFFD0B504000CF08EFBE268A3696B
:10999000981A09F0BBFC06000F002369E069C01AA1
:1099A00009F0B4FC32003B0009F0FEFF0022104B2E
:1099B00008F0BCFE0F4A104B08F0B6FB09F032FD70
:1099C0000021041C07F060F8002804D0201C0B497B
:1099D00007F07CF9041C201C09F0D2FC02000B00EB
:1099E0000020074909F014F909F05AFCD0BDC0461F
:1099F00000806640EA2E4454FB2109400000B44335
:109A000000807640F0B5050085B0006C0CF00FFBCF
:109A1000061C286C0CF002FB0221071C28000CF02D
:109A200074FB0221039028000CF081FB07F0D6FFA5
:109A30000221041C28000CF08CFB07F0CFFF051C52
:109A4000301C09F073FF0290301C09F031FF0190C7
:109A5000381C09F06BFF061C381C09F029FF071C95
:109A6000039807F0BBFF391C07F0A2FC311C071C50
:109A7000201C07F09DFC029907F09AFC011C381C81
:109A800007F024F9311C071C281C07F091FC0199F0
:109A900007F08EFC011C381C07F018F90299061C0F
:109AA000281C07F085FC0199051C201C07F080FC90
:109AB000011C281C07F0AEFD311C09F079FF0D498F
:109AC00007F076FC09F05CFC0B4A0C4B08F02CFB11
:109AD00009F0A8FC0021041C06F0D6FF002804D0E1
:109AE000201C044907F0F2F8041C201C07F056FF64
:109AF00005B0F0BD0000B443EA2E4454FB211940E8
:109B000070B50022102104000CF0C0FA1B4D002893
:109B10002DD1032608212000FFF722FFA84226D0DE
:109B2000304226D1FA216389890059435023144ACF
:109B3000D518D058884204D3D518083B18000830EF
:109B4000F7D1FA212868890006F016FEA02260816C
:109B5000112120000CF09AFA002808D101222B795B
:109B600010211A4320000CF091FA002800D003487D
:109B700070BD6420FFF7E8F8CCE7C0460EFCFFFF9D
:109B8000C89802007FB50425837904002B4218D1C0
:109B900002260CF089FAA379A188B3432B43A37161
:109BA0000622012368460CF0B6F8A0790300304085
:109BB000AB43A37143425841034B4042184004B0A9
:109BC00070BD0248FBE7C04614FCFFFF15FCFFFF19
:109BD00010B5837904005A070DD49B0701D4FFF711
:109BE000D1FF236C2000002B02D0FFF70BFF10BD2C
:109BF000FFF7C8FEFBE70148F9E7C04615FCFFFF89
:109C000070B5466C86B001AC050001916260A3603E
:109C1000002E0CD00B4905A8FFF7E4FA0C23220014
:109C200005A930000CF0F4FF05A80BF0CEFF2B00C7
:109C30000C3307CC07C30223AA791343AB7106B0D8
:109C400070BDC0469BA60200642330B504000281AB
:109C5000438185B08180FFF753FF0222A379606CB6
:109C60009343A371002813D00C490CF098FF051EF4
:109C70000ED001000C22103101A80FF068FC20006A
:109C80000199029A039BFFF7BBFF2800FFF7BEF97B
:109C90000123A2791343A37105B030BD9BA6020036
:109CA000F7B5009308AB1B880400019309AB1D882E
:109CB00000230F0016000D4A838008328371026072
:109CC000C360036143618361C36103621D2124306A
:109CD0000CF0CFF9009BE763266429002000636441
:109CE000019AFFF7B1FF2000FEBDC0462099020097
:109CF00082B0F0B50400A5B064202B932A920FF037
:109D0000EDFA04220C2109A802F0B0FD2422CC496E
:109D10001BA80FF01CFC052206A811000EF046F847
:109D2000C84907A802F04EFEA06800F081FBA568B4
:109D3000C54918A8FFF756FA782218A9280000F09C
:109D4000A5FC18A80BF041FF6E256420013D0FF023
:109D5000C5FA002DF9D1A06800F06AFBA0680CF0EC
:109D600098FB012160680CF0D9F8012107006068B8
:109D70000CF0E7F806000A200FF0B0FA0022B34B0F
:109D800003929F4210DB013203923A00C8320BDB90
:109D9000C822042192000391974205DC032203921A
:109DA000C82F01DC013A039200279E420CDB3300EE
:109DB0000137C83308DBC82303379B009E4203DC0E
:109DC000013FC82E00DC013F06A80DF0E6FF00268B
:109DD000032373431BA9CA189078002805D0C95CD7
:109DE0005278FF2306A802F081FD01360C2EEFD138
:109DF0006B463AB20C21595E06A8FF2302F076FDAD
:109E00000023A06800931A00743006A90DF0D5FF56
:109E1000002304930323049A039853431BAA995CD9
:109E2000814237D1D31805935B78BB4232D1059B71
:109E30009E78002E2ED1310020680CF066F907F0D4
:109E4000CDFD3200031C290009A80DF06AF931008C
:109E500020680CF06CF907F0C1FD0122031C2900F9
:109E600009A80DF05EF9310020680CF072F907F0D6
:109E7000B5FD2900031C022209A80DF052F9FE23AA
:109E800003229B05290009A80DF04BF90123059A2F
:109E9000ED189370049B013304930C2BBAD164200A
:109EA0000FF01CFA0B2D00DC5BE709A80DF025F97B
:109EB000012201000CA802F0D9FC002509A80DF030
:109EC0001CF9A8423CDD2900002209A80DF017F971
:109ED0000022061C290009A80DF011F9011C301CF4
:109EE00007F066FA2900061C012209A80DF007F9FF
:109EF0000122071C290009A80DF001F9011C381CDA
:109F000007F056FA311C06F0E1FE2900061C022279
:109F100009A80DF0F4F802222900071C09A80DF089
:109F2000EEF8011C381C07F043FA311C06F0CEFE97
:109F30002900031C00220CA80DF0F3F80135BDE741
:109F400009AA1100012318A80DF005F918A90FA8F6
:109F50000DF05EF918A80DF0F5F80CAA09A912A8E1
:109F600001230DF0F8F8002312AA0FA915A80DF08F
:109F7000F2F8002215A811000DF0C1F80022061C0D
:109F8000012115A80DF0BBF80022051C022115A81F
:109F90000DF0B5F8FC21071C8905301C07F008FA04
:109FA00007F0FCFCFC21060018908905281C07F02E
:109FB000FFF907F0F3FCFC21050019908905381C16
:109FC00007F0F6F907F0EAFC2A00030031001A90C6
:109FD0002068FFF715FEA0680CF05BFA07A908A837
:109FE000A5680DF0D2FE0022194B009208A901933A
:109FF0002800130000F0BAFA08A80DF0B9FEFA2004
:10A0000080000FF06BF9A0680CF043FA15A80DF072
:10A0100099F812A80DF096F80FA80DF093F80CA877
:10A020000DF090F807A80DF0A3FE06A80DF0A0FE15
:10A0300009A80DF087F825B0F0BC08BC02B018479D
:10A04000A6A60200CAA602000FA70200E0FCFFFFBE
:10A05000DC050000F7B583601D4B05001F6801603B
:10A060004260002F31D02820FEF7B0FF04001030EE
:10A070000BF047FE174B18202360FEF7A7FF0022C6
:10A080000600154B01920560083200210C30009348
:10A090000FF079FA08226946301D0FF058FA0F4B7D
:10A0A00000227361C223A3803B68E260A660226243
:10A0B00062625B68210038009847002805D02000C4
:10A0C0000BF039FD2000FEF7A1FF2800FEBDC046C1
:10A0D000E026002005000600F19C01006B610200F3
:10A0E000F0B5040085B0637A9C46002B04D12000B3
:10A0F0000CF066F805B0F0BDA37A266F019310232B
:10A10000019AF35600259B1801229A402900F36812
:10A1100003920293029BAB4231DDB368019A6B4319
:10A120009B1872695B00E77AD3181A785878E3793C
:10A13000012F14D15F1E3F1A10003A005B00434309
:10A14000606F8218D3189B79634500DD6346627B9C
:10A150001A4202D00123AB4019430135DAE7022F3E
:10A1600005D15F1EBA1A277A013F381AE6E7032F96
:10A17000E4D1277A013FBF1A02003800DEE711233D
:10A18000C943F356606C994023691940039B1943F6
:10A190000FF08FF9A27B072AACD8637B0C495B00D8
:10A1A0006373531CDBB290004158A373022A03D897
:10A1B00008000FF088F896E7064B20002363002381
:10A1C0006363054BE462236414300EF0F6FE91E7FE
:10A1D00038990200E1A00100AB61020010B5040053
:10A1E000044B03600EF0E1FE200005F0C5FC2000EA
:10A1F00010BDC046B89D020010B504000E4B0833D8
:10A200000360FEF7E1FF200074300DF0B1FD200087
:10A2100060300DF0ADFD200058300BF0D6FC200072
:10A2200050300BF0D2FC2000044B14306361FFF778
:10A23000D5FF200010BDC04658990200EC9D0200D9
:10A24000F8B500250400324B858008330360857122
:10A25000143016000F0005F079FC20002D4BE5624C
:10A26000636125645030FEF7F7FF20005830FEF799
:10A27000F3FF2000603002F033FB20000423F25E85
:10A2800033682667590009B274300DF08FFD3368CA
:10A29000226FE37173680126237210236581A78002
:10A2A0002561D35691685918994204DD30009840D1
:10A2B00001330543F8E711230120D356D16859181B
:10A2C000994206DD02009A40266901333243226139
:10A2D000F6E71420FEF77AFE226900212A430123C3
:10A2E000060006F0ABF8FF23220063720133A3815E
:10A2F000002348326664A37320001370A366FEF740
:10A3000045FF0123A27920001343A371F8BDC04685
:10A3100058990200EC9D0200F0B5437A85B0040024
:10A32000002B04D120000BF04BFF05B0F0BD012243
:10A33000837A11009C461023066F0025F356039282
:10A340006344994002912900F3680193019BAB4259
:10A350002CDDB36872696B4363445B00E77AD31802
:10A360001A785878E379012F10D15F1E3F1A100038
:10A370003A005B004343606F8218D3189B79002B2F
:10A3800002D0039BAB4019430135DFE7022F05D113
:10A390005F1EBA1A277A013F381AEAE7032FE8D17D
:10A3A000277A013FBF1A02003800E2E71123C943B0
:10A3B000F356606C994023691940029B19430FF0D2
:10A3C00078F8667AB31EDBB2FC2B14D8FEF78CFE4D
:10A3D0000B4B0500236300230A4863630A4BFF21EC
:10A3E000E4622364704306F051FA290041432000DF
:10A3F00014300EF0E2FD637A012B00D995E791E766
:10A40000C1610200B6030000AB6102001FB5012369
:10A4100081881A0068460BF07EFC012303491A006C
:10A4200068460BF078FC05B000BDC046FE03000096
:10A430001FB5030048331A780400002A0DD000220B
:10A440001A70012381881A0068460BF064FC01230E
:10A4500004491A0068460BF05EFC200074300DF0D1
:10A460009CFC1FBDFF03000010B548300378002B93
:10A4700006D00378012B03D0012102480BF0D1FA5A
:10A4800010BDC046FF03000010B5012104000620E6
:10A490000BF0C7FA064B984208D148342378002BBA
:10A4A00004D02378012B01D020BFF7E710BDC046B0
:10A4B00016FCFFFF70B50600141E19DB05004835B9
:10A4C0002B78002B02D02B78012B13D100233000E6
:10A4D0001A00743002F0C6FA002C07D033004A3359
:10A4E0001C80002407234C3634802B70200070BD64
:10A4F000014CFBE7014CF9E717FCFFFF12FCFFFFE3
:10A50000F8B517000A68050052880B00012A09D126
:10A51000002118000BF0E8FB002201002800FFF7E3
:10A52000C9FFF8BD002F19DD060048363278002A31
:10A5300002D03278012A13D12A00002428005C328C
:10A540001900148058300BF0AAFB2B004A331F80EF
:10A5500003234C352C8020003370E2E70148E0E70C
:10A560000148DEE717FCFFFF12FCFFFF73B5079CF5
:10A570000500002C1CDB060048363078002802D08D
:10A580003078012816D106981BB2C0B2009028007E
:10A5900012B274300DF011FC002C07D02B004A339E
:10A5A0001C80002407234C352C803370200076BD9E
:10A5B000014CFBE7014CF9E717FCFFFF12FCFFFF22
:10A5C000F7B505000E00171E26DDFFF74DFF2B0027
:10A5D00048331C78E4B2002C20D133685B88012B0F
:10A5E00009D1210030000BF07FFB22000100280080
:10A5F000FFF760FFFEBD310001A80BF048FB3A00F9
:10A6000001A92800FFF77CFF01A80BF0DEFA280063
:10A61000FFF73AFF2000EDE70148EBE70148E9E7E3
:10A6200017FCFFFF11FCFFFFF0B587B00D9C060083
:10A630000F0002920393002C20DBFFF715FF33007D
:10A6400048331D78EDB2002D1AD1390005A80DF060
:10A650009CFB0C9B01940093029A039B05A930007C
:10A66000FFF784FF05A80DF083FB002C03D030001A
:10A67000FFF70AFF2C00200007B0F0BD014CFAE7FD
:10A68000014CF8E717FCFFFF11FCFFFFF8B50400D1
:10A69000171E1DDD060048363378002B02D03378B4
:10A6A000012B17D12200E3795632013B13702300AE
:10A6B0000025200054331D8050300BF0F0FA2300A9
:10A6C0004A331F80022328004C3425803370F8BDA4
:10A6D0000148FCE70148FAE717FCFFFF12FCFFFF07
:10A6E000F7B505000F00161E18DDFFF7BDFE2B00A5
:10A6F00048331C78E4B2002C12D1390001A80BF0C9
:10A70000C6FA320001A92800FFF7C0FF01A80BF02C
:10A710005CFA2800FFF7B8FE2000FEBD0148FCE708
:10A720000148FAE717FCFFFF11FCFFFFFF2902D8E1
:10A730004172002070470148FCE7C04617FCFFFF4C
:10A74000F0B51F0085B00AAB1B780400039300939B
:10A750003B000D0016000EF056FC002833D0237D80
:10A76000082B2DD8236800221900FC318A62A02111
:10A77000C9005A50154905205A500138C046C046F4
:10A78000C046C046C046C046C046C046C046C04699
:10A79000C046C046F1D1236801325A50A02104328C
:10A7A000C9005A5005F0E2FA039B320000932900D9
:10A7B0003B0020000EF027FC237D01332375CCE7FE
:10A7C000034805B0F0BD2075FBE7C046FC0F000054
:10A7D0000EFCFFFFF0B51F0085B00AAB1B7804002C
:10A7E000039300933B000D0016000EF0F4FB0028CD
:10A7F00033D0237D082B2DD8236800221900FC318B
:10A800008A62A021C9005A50154905205A500138C2
:10A81000C046C046C046C046C046C046C046C04608
:10A82000C046C046C046C046F1D1236801325A50E6
:10A83000A0210432C9005A5005F098FA039B320057
:10A84000009329003B0020000EF0C5FB237D01335F
:10A850002375CCE7034805B0F0BD2075FBE7C04683
:10A86000FC0F00000EFCFFFFF8B50D1E30D00026D7
:10A870000227C468002C28D0AA88A38853403B42F2
:10A8800004D13A4204D1AB883B4219D0646AF1E763
:10A89000A968A0680CF020FC0028F4D02B88002BBD
:10A8A00002D022889A42F1D16B88002B02D06288B4
:10A8B0009A42EBD1A288074B01361343A380E5E708
:10A8C000A368AA689342E1D1E8E72000002E00DCEB
:10A8D0000148F8BD0080FFFF17FCFFFFF0B5060040
:10A8E00085B00D1E59D00127C468002C22D002214A
:10A8F000AA8800230A4202D0A3885B083B40226852
:10A9000029688A4210D1A068A968002B0AD00CF0EF
:10A91000E3FB002808D0A3881AB2002A06DB2048EF
:10A9200005B0F0BD8842F6D0646ADEE75B045B0CDC
:10A93000A380F4E7F0682A88002807D1F560012396
:10A94000184968460BF0E7F90020E9E70100030029
:10A950001C88944206D25C6A1900002C0DD023009A
:10A96000F6E723001C88944207D15F886C88A742D1
:10A9700003D25C6A1900002CF3D1814209D10B8803
:10A980009A4204D305D148886B88984201D96962FC
:10A99000D4E74B6A6B624D62D1E70348C0E7C0461B
:10A9A00016FCFFFFFD03000017FCFFFF064B10B570
:10A9B0001A00040008322C33026043600430FEF7B2
:10A9C00039F9200010BDC0467099020008B4024B4E
:10A9D0009C46043808BC6047ADA9010008B4024B8E
:10A9E0009C46043808BC6047D36502000C4A00232B
:10A9F00011002C32083110B5038183724260C360AC
:10AA0000036143614383016004000430FEF704F9ED
:10AA1000044B1A68002A00D11C60200010BDC046FB
:10AA200070990200E0260020F7B50E000125C468E9
:10AA30000192002C36D0238832889A4201D0002B14
:10AA400023D1638872889A4201D0002B1DD1FEF772
:10AA500057F80123002806D0C022A3881340C03B2A
:10AA60005A425341DBB2019A934219D1A7883BB2B3
:10AA7000002B15DB10223100A0180EF068FD4023DA
:10AA80001F4204D020000BF0ADFD646AD1E7FEF751
:10AA900037F80028F6D021000348FEF7E1F9F4E783
:10AAA0000025F2E72800FEBDE565020008B4024B70
:10AAB0009C46043808BC60476D670200F0B587B05B
:10AAC00001930EAB1B88060003930D9B0D000093B2
:10AAD000019B02920C9F002B3DD0002F02D1009BC6
:10AAE000DB0738D52820FEF771FA040010300BF090
:10AAF00008F96B461B89258063801820FEF766FAEB
:10AB00000500009B08220593019B002103600C3087
:10AB100004970EF038FD082204A9281D0EF017FD39
:10AB20000E4B02226B6100230399E3602362636290
:10AB300033680A43A560A2805B6821003000984713
:10AB4000002806D020000AF0F6FF2000FEF75EFA8B
:10AB5000034807B0F0BD0348FBE7C046A767020003
:10AB600016FCFFFF17FCFFFFF0B5040016000025E0
:10AB70008380164A164B85710260218146810573D8
:10AB8000186889B08C46A8421DD0124A05950492D7
:10AB9000C02202926A4604AB82CB82C223002A0002
:10ABA0006146FFF78BFFC022094B0A4918680292E1
:10ABB0006A46069106AB079582CB82C223002A0023
:10ABC0003100FFF77BFF200009B0F0BDB49902000F
:10ABD000E0260020D168020030B500240373012371
:10ABE000034D84710560818082734373846030BD3E
:10ABF000CC99020070B5040000250C4B0E00083300
:10AC0000858085710360210018300BF019FF20004A
:10AC1000210020300BF037FF054BA680E580257220
:10AC2000E5602561656120001C6070BDDC99020053
:10AC3000E82600208379DB0702D5C1600020704739
:10AC40000048FCE716FCFFFF8379DB0701D5C068ED
:10AC500070470148FCE7C04616FCFFFF70B5456928
:10AC60000400002D22D0037A032B21D8FFF7ECFF3C
:10AC7000A8622C20FEF7AAF92C22002105000EF074
:10AC800082FC002263695A622369934208D1636996
:10AC900023610020237A65610133237270BD1300A4
:10ACA0005A6A002AFBD162695A62F2E70148F5E765
:10ACB0000148F3E717FCFFFF13FCFFFF144B70B5CF
:10ACC0005A68144C002A03D000225A600132A26054
:10ACD0001A69002A17D0002119618023DB000E4D6C
:10ACE000E3582868012B0FD1A923DB00E158494222
:10ACF000FFF7A0FF2868FFF7B1FF2B685A69074BE1
:10AD0000E2500123A36070BDFFF794FFF9E7C0464E
:10AD1000FC10004000100040E82600200405000060
:10AD200003000069002809D00221054AD167426A60
:10AD30001A611A7A013A1A72024B19607047C046BA
:10AD400004E100E000E100E0F0B5224B85B01B78A3
:10AD500004005B0739D50EF075F90025236CC6B2E7
:10AD60000227DF5FAF420EDD200029B240300AF03B
:10AD7000BBFF864205D1012320211A0068460AF054
:10AD8000CAFF0135EEE7250023004E3528884C33F5
:10AD90001978013005F060FE230050331B8889B21A
:10ADA0008B4214D02B88A26CD654636C2980002B64
:10ADB0000BDB2A88934208D1012302225B426364A1
:10ADC0000233202168460AF0A6FF05B0F0BD01233A
:10ADD0000322F6E7DB2900200121024A13788B4386
:10ADE00013707047DB2900200223024A11780B43BD
:10ADF00013707047DB2900200221024A13788B432D
:10AE000013707047DB29002010B5002903DB024BCB
:10AE100019600EF050F910BDEC26002070B504004A
:10AE20001E0004AB1D7804F0D9FE20000E4B40300C
:10AE30002360FEF711FA230001364C33013522005E
:10AE40001E701D730023E1214E32A36463651380DD
:10AE500053809381D381013B200063644902FFF753
:10AE6000D3FF200070BDC0461898020070B50500E1
:10AE70001400012A11D003004E331888023B4018F9
:10AE8000197805F0E9FD69640025022C03D1210041
:10AE900020200AF0C6FD280070BD014DFBE7C0462A
:10AEA00017FCFFFF70B50600503604000A00338817
:10AEB000002906D102004E3212889A4208D10F486A
:10AEC00070BD01290FD101004E310A889A42FCD091
:10AED000A36C30884C341D5C2178013005F0BCFD3A
:10AEE00028003180ECE70229F2D101004E310988B7
:10AEF0009942EDD10121FFF7B9FFE9E70CFCFFFF13
:10AF0000F0B5050007005C355A372B883A8885B0C4
:10AF100004009A421ED0104B1B781B071AD52B88B1
:10AF2000426DD15C0EF092F82300288858331978CE
:10AF3000013005F091FD3B888EB2B34209D107493B
:10AF40000123022268460AF0E6FE012120000BF0F0
:10AF5000DBFD2E8005B0F0BDDB290020FF030000E3
:10AF600070B5114D04002B781B0705D501210BF09E
:10AF7000CBFD606DFEF74AF808262B78B3432B70A3
:10AF8000230058331878FEF721F86065002809D0AF
:10AF9000230000205A3318802B785C341E43208015
:10AFA0002E7070BD0148FCE7DB29002013FCFFFF79
:10AFB00073B50D0006A9040009780430002A01D1F8
:10AFC000DE070ED5002D0CD018264E430C34A419E4
:10AFD00062600122A360044B2560636105F0A6F95D
:10AFE00073BD0022FAE7C046B16A0200F0B58BB02B
:10AFF000059303000700040000255833069304332B
:10B00000039104925A370793049B9D4211DA069BE1
:10B010003E881978701C05F01FFD079B89B21B88BC
:10B020008B4206D0039B626D5B5D01359355398081
:10B03000EAE7059B012B03D002210748FDF7AEFE8E
:10B04000012320000093054A00232100FFF7B0FFF1
:10B0500028000BB0F0BDC046FF03000001AF0100A7
:10B06000F7B5134D04002B780F0016009B071DD475
:10B07000FFF7BAFE2B781B0712D5002301A90B801E
:10B080000122330020000F70FFF7B0FF31000500F0
:10B0900020000BF029FD2000FFF7AEFE2800FEBDCA
:10B0A0002000FFF75DFF051EE7D0F7E7014DF5E74C
:10B0B000DB2900200DFCFFFFF0B5164E85B033787C
:10B0C00005005B0705D500210BF01EFDA86CFDF700
:10B0D0009DFF04273378BB4333702B004C33187823
:10B0E000FDF774FFA864002811D02B0000244E3314
:10B0F0001C805C80337828001F433770064A009418
:10B1000023002900FFF754FF200005B0F0BD0348DD
:10B11000FBE7C046DB29002049AD010013FCFFFF1F
:10B12000012370B50E000C4905000A781A4211D1AE
:10B1300013430B70530708D531002800FFF7B2FE08
:10B140000400FFF749FE200070BDFFF7B5FF041EA5
:10B15000F2D0F8E7014CF6E7DB2900200DFCFFFFF9
:10B16000F0B5224D89B02B7804000F0003929B07A5
:10B1700039D10126FFF738FE2B78200033432B709E
:10B180000BF0A1FC002803DD310020000BF0BCFC1B
:10B190000025002120000BF0B7FC201D039A390088
:10B1A00005F026F820000095114A2B002100FFF73A
:10B1B000FFFE20000BF087FCA84207DD01230D4AAB
:10B1C000009321002B002000FFF7F2FE0A4B200025
:10B1D0001968FFF719FEFFF7FFFD2000FFF70CFECF
:10B1E000002009B0F0BD0548FBE7C046DB29002080
:10B1F00049AD010001AF0100EC2600200DFCFFFF6E
:10B20000F7B580277F053D697C690822113C6C43B6
:10B210000600210068460EF09AF9104B009A9A42F7
:10B2200019D00093002301937969300013396943E1
:10B230000BF070FC019A009930000BF083FC2100A8
:10B2400030000BF067FC7969AB08133969432200C1
:10B2500030000BF069FC0198FEBDC046FECA00003C
:10B26000F0B50D00A9B00D9200213022060010A803
:10B270000B930EF088F928000EF0C5F9431C0C93CF
:10B28000102B00D9B5E00B9B202B00D9B1E0290091
:10B2900030000BF084FC071E50D129000C9A10A836
:10B2A0000EF055F90D990B9A14A80EF050F9802361
:10B2B0005B051A695F690C92113F7A4330005D6942
:10B2C0000B92FFF79DFF3022002104001CA80EF016
:10B2D0005AF9290000270C9B1339594330000BF011
:10B2E00019FC0D9730257D430B9B0833ED18A742C1
:10B2F00042DA290030221CA80EF029F910A91CA856
:10B300000EF077F9002827D13C49300022000E9139
:10B310000F940BF017FC6A46099513AB23CB23C29D
:10B3200023CB23C223CB23C23000129B1099119A46
:10B330000BF016FC01230D930137D3E710300B9A65
:10B340000D990EF0F5F804003800FDF75FFE002CB3
:10B35000A3D1200029B0F0BD6A4609951FAB23CBCD
:10B3600023C223CB23C223CB23C230001C991D9AB6
:10B370001E9B0BF0F5FBDFE7E5433023ED1725407F
:10B380005D430B9B08355D190D9B002B1DD10C9B5C
:10B390003021981E05F0F0F9A0422CD01749013455
:10B3A000300022000E910F940BF0CCFB6A460995F9
:10B3B00013AB23CB23C223CB23C223CB23C2300026
:10B3C0001099119A129B0BF0CBFB0B9930000BF0EC
:10B3D000A1FB80235B0559690C230C9A1339634345
:10B3E0004A430233110030000B9A0BF09DFB0024FE
:10B3F000AFE7034CADE7034CABE7C046FECA000025
:10B4000017FCFFFF13FCFFFF70B50400A280FA22B7
:10B41000002308000C49920008312160A37160618B
:10B42000E260A360638209490BF0B9FB051E09D0F5
:10B43000010020001031022212300EF088F828009E
:10B44000FDF7E4FD200070BDF49902001DA7020085
:10B4500030B50225837987B004002B4204D1FDF773
:10B46000DBFBA3791D43A57120000BF0E2FB002854
:10B470001CD06B46DD1C28000BF0D2FB2B78002B78
:10B4800017D001A80BF0CAFB0321019AD3170B4078
:10B490009B189B102382FDF761FEE368A1881818B2
:10B4A0000123A0601A0002A80AF035FC002007B0B2
:10B4B00030BD0122064B1A60064A51680029FCD0B3
:10B4C00000215160044A1268019201225A60DBE7B0
:10B4D00000C00040FCC0004008C50040022802D166
:10B4E0000122014B1A707047DC29002070B5064C10
:10B4F00005002378002B04D1044801F083FC0123CC
:10B500002370280070BDC046DD290020DDB4010095
:10B5100070B50C000AF013FA002810D00023144D67
:10B52000A40A2B7020000BF098FB002803D00A20FF
:10B530000DF0D4FEF6E72B78002BFCD070BD022175
:10B540000C4B0D4A99508021C90008005D58002D10
:10B55000FCD0A121C9005C5019580029FCD0002161
:10B5600099508021C9005A58002AFCD0E6E7C0460D
:10B57000DC29002000E0014004050000F8B50C00C3
:10B5800015001E000AF0DBF9002811D00023174F28
:10B590003B703200290020000BF05DFB002803D037
:10B5A0000A200DF09BFEF4E73B78002BFCD0F8BDA1
:10B5B00001210F480F4B844619508021C9005A5869
:10B5C000002AFCD080270022FF00964207DD910070
:10B5D00068586050D9590029FCD00132F5E70022A3
:10B5E00061465A50DA59002AFCD0E0E7DC290020F5
:10B5F0000405000000E0014010B50400054B0833CD
:10B6000003601C300AF0E1FA200018300AF0DDFA7D
:10B61000200010BD0C9A0200FF23F0B52C4D8DB018
:10B620002B700023040069460088009303F0B0FAF1
:10B63000002802D16B469B782B70264E3368DB685E
:10B64000002B07D1002320881A0019000BF009FBFA
:10B650000DB0F0BD2B78032BF4D81F4901A8FDF7DE
:10B66000C1FD336801A9DE6804A80AF010FB04A933
:10B6700030000BF0C7FA0027060004A80AF0A5FA6C
:10B68000BE421ED031002022103104A80DF05FFF11
:10B690003000FDF7BBFC297804ABC900591808221B
:10B6A00002A80DF054FF20880123082202A90BF004
:10B6B000D8FA0137002804D12088084A0C210BF061
:10B6C000CEFA01A80AF081FA002FBBD0C0E7C0462D
:10B6D0000B220020FC2600202DA70200FFFF000007
:10B6E000F0B5837991B004005B071BD5FDF736FDFB
:10B6F00000232269801A9941994203D1F423FF3330
:10B7000098420FD9A068002808D0364B1D880CF04D
:10B71000F3FB036815221B6A290098470422A379CA
:10B720009343A371A3799B0759D52F4D2B68DB68F1
:10B73000002B50D02D4B1B78032B4CD8294B2C4978
:10B740001B8804A80193FDF74DFD2B6804A9DE6852
:10B7500008A80AF09CFA08A930000BF053FA070079
:10B7600008A80AF032FA02AB9E1D0823320033808B
:10B7700006A9073B01980BF076FA002F08D0390094
:10B780002022103108A80DF0E2FE3800FDF73EFC43
:10B79000164B32881B7806A9DE0008AB9E193000D4
:10B7A0000DF0C6FE002813D0082206A930000DF0C7
:10B7B000CEFE2B6804A9DD6805A80AF068FA2023EC
:10B7C00008AA05A928000BF023FA05A80AF0FDF93C
:10B7D00004A80AF0FAF90222A3799343A37111B0E5
:10B7E000F0BDC04684290020FC2600200B2200204A
:10B7F0002DA70200F7B5089E0500152922D80120C3
:10B8000007008F40244C27421CD0E97FCC181F2C06
:10B8100041DC69183418A14210D80021C8B2834213
:10B8200004D9545C701884700131F7E732789A18A3
:10B830003270EA7F9B18EB7700202CE00878C85420
:10B840000139E8E73478013CE4B2A34208D100238F
:10B85000D9B28C42F0D9D05CF11888700133F7E787
:10B86000EF7F0120FF183F1B1F2F14DC0227A01CB5
:10B870007F423618381B0190E87F2F18BE4204D251
:10B880003078019FF0550136F6E7041B023CEC7757
:10B8900028000BF032FAFEBDFC002000F0B585B0A8
:10B8A00001930AAB1E880BAB1B78451C02930EABB1
:10B8B0001B78040003930B78170003704B8A102247
:10B8C0004382013128000DF042FE6B469B8826839F
:10B8D00063836B461B7B002623776B4601221B7A12
:10B8E0006761E683EB77A31CDA770C9B0C25636218
:10B8F000230020000D9A28331A705E709E702A0073
:10B9000031002C300DF03FFE2000074BE663A363AF
:10B910002A00310040300DF036FE2000034B266532
:10B92000E36405B0F0BDC0467D6C02006F6C0200A0
:10B9300070B50D000CF0E0FA04000368002D09D189
:10B940005B699847FA2080006843074904F014FFB8
:10B95000E08070BD9B6898478542F3D22368200041
:10B960009B6898470500EDE771020000F0B50700FD
:10B970001600A1B002C704006B4918A81D000BF007
:10B9800003FA331E03D030000DF03DFE83B20122D6
:10B99000049200220392029202320192009332003A
:10B9A00018A93800FFF77AFF23006049583318A818
:10B9B00007930BF0E9F92B1E03D028000DF023FEAE
:10B9C00083B2012204920022039202920232019277
:10B9D00000932A0018A90798FFF760FF2300544935
:10B9E000AC3318A808930BF0CFF9269B002B03D09B
:10B9F00018000DF008FE83B2012204920022039287
:10BA00000292023201920093269A18A90898FFF731
:10BA100045FF631CFF33474918A809930BF0B4F99D
:10BA2000279B002B03D018000DF0EDFD83B20122FF
:10BA300004920022601C039202920232019200934F
:10BA4000279A18A9FF30FFF729FF23005533FF334A
:10BA5000394918A809930BF097F9289B002B03D0BC
:10BA600018000DF0D0FD83B201220492002203924F
:10BA70000292023201920093289A18A90998FFF7BE
:10BA80000DFF2300A933FF332C4918A80A930BF0AC
:10BA90007BF9299B002B03D018000DF0B4FD83B275
:10BAA00001220492002218AD039202920232019206
:10BAB0000093299A29000A98FFF7F0FE204B1B7883
:10BAC0000B93002B2DD1079B12971393089B0DAF5F
:10BAD0001493631CFF331593099B1A4916930A9B11
:10BAE000380017930BF050F91D2149203B781022A4
:10BAF0002B707B8A12AE6B8206ABC918C0180DF092
:10BB000026FD06232B756B469B8D2068AB83AE61AB
:10BB10000CF0F6F9036829001B6898470122084BCE
:10BB20001A70200021B0F0BD292A0000242A00004C
:10BB3000252A0000272A0000262A0000282A0000C3
:10BB4000DE2900200A18000070B5002504000A4B09
:10BB50008580083385710360C1601830FDF77CFB78
:10BB600020001C30FDF778FB044BA5601C6001230E
:10BB700065612000A37170BD0C9A0200FC260020B4
:10BB8000FA2130B585B005000123022289006846FC
:10BB90000AF0C1F8074C2068002809D00BF02DF9F5
:10BBA0002988054B22681980022391790B439371F0
:10BBB00005B030BDFC2600208429002010B50C0003
:10BBC00007290DD880680CF097F9064B19570368C0
:10BBD0005B6C9847431E9841034B4042184010BD90
:10BBE0000248FCE725A7020016FCFFFF17FCFFFF39
:10BBF000F0B5A44C0D00A544040007939AAB1B7844
:10BC0000A14909A804930692FDF7ECFA2000290047
:10BC10001C300AF044F8C020800001F0E9F8082048
:10BC2000FDF7D4F90600002100F0D0FF15ADA660A5
:10BC300000210C220EA80DF0A6FC2B000EAA83CA30
:10BC400083C3924B2900EB60002330002B610CF082
:10BC50003CF9A0680CF050F908220021059016A8C4
:10BC60000DF091FC1420FDF7B1F929000200884B7A
:10BC70001593C8C9C8C2874B059EC3600023A4366C
:10BC800003613368002B00D0F5E03060A0680CF051
:10BC900037F908220021060016A80DF074FC1420C4
:10BCA000FDF794F97C4B1593030086CD86C37B4B3F
:10BCB000C36000230361336B002B00D0DDE03063F1
:10BCC000A0680CF019F908220021050016A80DF053
:10BCD0005AFC1420FDF77AF9714B15AE1593030049
:10BCE00086CE86C36F4B9835C360002303612B68F3
:10BCF000002B00D0C3E02860012504AB1B7C04AA04
:10BD00002B4308A9280013740AF0AFFFA0680CF0B9
:10BD1000FBF8036864495B6A9847A0680CF0F4F884
:10BD2000036862499B699847A0680CF0EDF800230E
:10BD300002680093166804992A00B047049B002B00
:10BD40000AD020000BF062F8032805DDA0680CF093
:10BD5000DBF80368DB6898470EA80AF0C5FF2F20C0
:10BD600004ABC0180AF0C0FF362004ABC0180AF0BC
:10BD7000BBFF3D20042504ABC0180AF0B5FF0EAB95
:10BD80000A93A06804AB5D770CF0BEF803680AA9BB
:10BD90001B699847A0680CF0AFF803680AA95B6DAF
:10BDA0009847A0680CF0A8F803680021DB6D98475D
:10BDB000A0680CF0A1F8036802219B6D9847002150
:10BDC0002000FFF7FBFE1820FDF700F9A16800F046
:10BDD00005FA374B374A1B68A1680393364B15A801
:10BDE0001B6800260293354B0CAF1B680193069B22
:10BDF0001B685B190093324B12681B68FFF7B6FD96
:10BE00003020FDF7E3F8079AA16800F0A7FAA068D0
:10BE10000CF072F8036839009B6A9847294BBE8082
:10BE2000A0680C930CF068F803683900DB6A984747
:10BE30002900A0680AF0B4FF099A09219378A06844
:10BE400052190AF0C0FFA0680CF056F8C82106711C
:10BE5000A068FFF76DFD04AB1B7FB34204D0A06860
:10BE60000CF04AF80AF086FF09A809F0AEFE952307
:10BE70009B009D44F0BD036107E703611FE7036179
:10BE800039E7C046ACFDFFFF20A802008B6C020022
:10BE900081BB0100996C020019B60100A76C020079
:10BEA000D56C0200B56C0200C9BE0100FDBE0100E8
:10BEB000F8260020F426002020200020F026002074
:10BEC000242000200800100013B506226846FDF764
:10BED00099F9094B1C68002C0AD0694601A809F0A1
:10BEE000D6FE200001A90AF0B2FF01A809F06DFEFC
:10BEF000684609F06AFE13BDFC260020002373B5D6
:10BF000001AE0C0031000500019302F041FE002853
:10BF100002D1B278064B1A70064B1868002806D07A
:10BF200061426141044BC9B21D800AF098FF73BDA4
:10BF30000B220020FC26002084290020F0B50400FC
:10BF400097B0039107A89C490592FDF74BF99B49CF
:10BF500008A8FDF747F922000FAD28001C3207A9F9
:10BF600009F0ACFE08AA290009A809F0A7FE2800DC
:10BF700009F02BFE92490AA8FDF734F9A0680BF0EE
:10BF8000BBFF03680DAE5B69984728000AF0ACFE62
:10BF9000332004ABC0180AF0A7FE3A2004ABC01847
:10BFA0000AF0A2FE412004ABC0180AF09DFE8023D7
:10BFB000DB00B380A0680D950BF09EFF0368310095
:10BFC0005B6D9847A0680BF097FF036800219B6D9D
:10BFD0009847A0680BF090FF0700002506000A377D
:10BFE0001F22002138000DF0CEFAFD7730000AF054
:10BFF000B8FE0621A0680AF0D3FE099A09219378B9
:10C00000A06804320AF0DFFEA0680BF075FFC821BB
:10C010000571A068FFF78CFCA0680BF06DFFFF278F
:10C020002E000581A0680BF067FF0AF0A3FE0398BD
:10C03000FEF7FEF90AA90CA809F029FE78220CA93E
:10C040000398FEF74DFB0CA809F0BFFD03992000F3
:10C050000AF018FF2000FCF7DFFD04950125636955
:10C060001D402DD057490BA800F0ACFC0BA90CA823
:10C070000BF08BFE00220CA9130001920092039892
:10C08000FEF7D2FA0CA80BF073FE049B002B42D1F2
:10C09000043F282F41DD0025FE2F00DC049D05987C
:10C0A00009F0DAFF002806D0012362699A431300E1
:10C0B00004221343636100260BA80BF059FE04957C
:10C0C00004226369134233D0FF210398C826FEF788
:10C0D0002DFB0025B600A36902229B5EAB4222DD48
:10C0E000200029B2183009F0FFFD00230100039859
:10C0F0001A00743000F0B6FC3000FCF725FE0398FF
:10C100000AF0C7F9C820FCF71FFE02226369134238
:10C1100009D10135DFE70437BBE703980AF0B9F925
:10C12000002FBCDDBAE7FA208000FCF70DFE0026E8
:10C13000022365691D421CD006331D4024D02249CC
:10C140000BA800F03FFC0BA90CA80BF01EFE002270
:10C150000CA90192009213000398FEF765FA0CA84F
:10C160000BF006FE1948FCF7EFFD0BA80BF000FEE4
:10C17000174E6420FCF7E8FD164B01369E4200DCAA
:10C180006CE709F0EEFB69E713490BA800F01AFC15
:10C190000BA90CA80BF0F9FD2B002A000CA90195A6
:10C1A00000950398FEF740FA0CA80BF0E1FD0BA8F0
:10C1B0000BF0DEFDDDE7C04639A7020049A702000B
:10C1C0004BA7020059A702009EA70200983A000060
:10C1D0008C0A00008B0A0000DBA702000022594BEA
:10C1E000F0B50833060003600F001000A9B0B1607D
:10C1F0000BAB991801324870102AFAD10F3A524C01
:10C200001A700E32105D991A0874013AFAD2997BAD
:10C210005A7B09020A4331000C31039125211B7816
:10C2200013AD2B7002ABC918452302A81B186A82F4
:10C23000180010220DF08BF9039B64216B61012320
:10C24000002402AA2B7752181993093313701DABDF
:10C250001C706D2302AA9B181C706E2321009B1872
:10C260001EA80C22EC836C621C700DF08CF9374B0D
:10C270000C22210023A8AB63EC630DF084F9344B4E
:10C2800002AAEB6446239B180322DA7722002C656E
:10C290000595347306AD2B1901345A70102CFAD160
:10C2A00001232C482B700E33195CEA1A1174013BE0
:10C2B000FAD211212520AA7B6B7B12020BAC13430F
:10C2C0002A78638202ABC9182270C01810220DF0C0
:10C2D0003EF90123237505ABA36100233800A38336
:10C2E0000BF00EFE036821001B68984713ABDB8B35
:10C2F000B068B3820BF004FE002203680092B18A9A
:10C30000039ADC680123A047B0680BF0F9FD070031
:10C310001420FCF75BFE0022012304000261069258
:10C3200040C00832290007930DF011F90A4BE36071
:10C33000BB69002B03D13000BC6129B0F0BD236183
:10C34000F9E7C046249A020038A802007D6C02007A
:10C350006F6C020048A80200E56E0200F0B50026EE
:10C360000400734BDDB0083303608160C2608680D7
:10C37000867132006F4947A80AF054FE2300143337
:10C380000125042708931223009704950193089A26
:10C39000330047A9039602961DA8FFF77FFA3200E3
:10C3A000654947A80AF03EFE0820220000973300A6
:10C3B00015AF10320495019047A90396029632A852
:10C3C000FFF76CFA32005D4938000AF02BFE2300BB
:10C3D000082004221C33099339003300049501908E
:10C3E00000920396099A029647A8FFF757FA32007F
:10C3F000534938000AF016FE5420FCF7E7FD05000B
:10C400002000012312210422183007900493019187
:10C410000092390002003300280003960296FFF7CD
:10C420003DFA2800474BA5620822EC620AA9303089
:10C430000A930B960DF08BF8434B0422AB63012358
:10C4400029352B7009992661E66107980DF07FF870
:10C450000422079908980DF07AF86621032304AAAC
:10C460008918CB77BA2104AA8918CB77872104AA27
:10C4700049008918A26ACB77911CA685CB771DABA2
:10C480000C9332AB0D930F9247AB32002F4910A89B
:10C490000E930AF0C7FD3021452004AB5B181B78D2
:10C4A00012313B7004AB5B181B8811397B8204ABE3
:10C4B000C918C01810220DF04AF804220CADA0686B
:10C4C0003A75BD61BE830BF01BFD036839001B6824
:10C4D0009847822204AB9B181B885432238404ABF8
:10C4E0009B181B885432A38404AB9B181B88A0683C
:10C4F00063840BF005FD07001420FCF767FD0500C1
:10C50000134B066108221093119610A910C00DF06C
:10C510001EF8104BEB60BB69B34206D1BD61200031
:10C52000FCF77AFB20005DB0F0BD2B61F6E7C0465A
:10C53000309A020078A8020058A8020068A80200F9
:10C5400088A80200F76F0200636F020098A802003B
:10C55000C1C501008D6F0200F0B504000E0015008A
:10C5600085B01F000CAB1B881030019309F0C9FB8C
:10C57000268065801820FCF729FD02AE05003300F7
:10C580000AAA03CA03C32F602800082700213A0023
:10C590000C300CF0F8FF3A003100281D0CF0D7FFEA
:10C5A000064B02226B61200000230199A5600A431B
:10C5B000E360A2802362636205B0F0BDB76F020042
:10C5C000F0B50B898DB00593CB68060004934B88BA
:10C5D000828C9A420ED1049C049B059A9B181B1BCB
:10C5E000032B3BDD62882188012308A809F093FB17
:10C5F0000434F1E7428C9A4230D1049C049B059AA2
:10C600009B181B1B032B29DD238828200693638896
:10C61000F7680793124B089300230993FCF7D6FCA5
:10C62000C0236A460500029308AB03CB03C2330064
:10C630000699079A2800FFF78FFF3B6829005B687F
:10C6400038009847002807D0002D05D0280009F0B1
:10C6500072FA2800FCF7DAFC0434CFE70DB0F0BD25
:10C660007570020070B5040090B080680AF0FDFC9F
:10C67000022101401AD1A38D002B17D00C4B6A4622
:10C6800004931023E568A1850591029304AB41CB87
:10C6900041C20A00230006A8FFF75EFF2B6806A927
:10C6A0009B682800984706A809F045FA10B070BDAD
:10C6B00075700200002815D0006041608260C36080
:10C6C000046145618661C761444604624C46446228
:10C6D000544684625C46C462644604636E464663A4
:10C6E00074468463002A06D0C46B043C043A25686F
:10C6F0001560B442F9D18C6BA6464E6BB546002B43
:10C7000006D0CC6B043C043B1D682560B442F9D1D3
:10C710000C6BA446CC6AA3468C6AA2464C6AA1461E
:10C720000C6AA046CF698E694D690C69CB688A682E
:10C73000086849687047006041608260C3600461B6
:10C7400045618661C761444604624C464462544672
:10C7500084625C46C462644604636E464663744603
:10C760008463C46B043C043925680D60B442F9D17C
:10C77000C7698669456904697047006041608260E5
:10C78000C360046145618661C761444604624C46EA
:10C790004462544684625C46C462644604636C46E8
:10C7A00044637446846304697047846BA646446B93
:10C7B000A546046BA446C46AA346846AA246446A9A
:10C7C000A146046AA046C769866945690469C368C9
:10C7D000826800684168704710B5041E0CD00CF0E8
:10C7E00012FF431EE3189C4208D222781978013BBD
:10C7F00021705A700134F6E7014810BD0020FCE7B3
:10C8000017FCFFFFF0B585B002900C1E2AD0002364
:10C81000C217161A56400193019B30005D1C631924
:10C820000A215F1E039304F017F949423031397031
:10C8300030000A2104F02AF847420600002F0FD1E9
:10C84000029B002B04DA2D23019D039A02351370FD
:10C85000002320006355FFF7BFFF380005B0F0BD8F
:10C860000195D9E7004FF8E717FCFFFF10B582608C
:10C870004A4304004160002A0ADD074B90009A42B7
:10C8800001DD01204042FCF7A1FB2060200010BD2B
:10C8900000230360FAE7C046FEFFFF1F4A688B686B
:10C8A00070B58360534304000D004260002B12DD1D
:10C8B0000A4A9E003000934201DD01204042FCF70D
:10C8C00085FB002320602A68D158C15004339E4262
:10C8D000FAD1200070BD00230360FAE7FEFFFF1FBE
:10C8E000014B03607047C046489A020030B50068AB
:10C8F0004488A1420CDA8588AA4209DA002907DBBC
:10C90000002A05DB5443401800198371002030BD14
:10C910000048FCE717FCFFFFF0B5070085B00E00EC
:10C920001D0000291FDD002B1DD0046863880393C0
:10C930008B4200DD0391A3880293934200DD0292B3
:10C94000002306340193019B029A93420EDA2900D8
:10C950002000039A0CF0FBFD3B68AD195B88E418DE
:10C96000019B0133EEE7024805B0F0BD0020FBE774
:10C9700017FCFFFFF8B504000D0016001F0000298A
:10C9800001DB002A02DA0E4B2360F8BD1000484399
:10C990000630FCF71BFB206009F00BFA23685D8072
:10C9A00023689E80002F06D03B0032002900200023
:10C9B000FFF7B2FFE9E720000BF0EFF9E5E7C0462B
:10C9C000489A0200F0B5060087B00D1E04D1244B32
:10C9D0000360300007B0F0BD00200F00040001002C
:10C9E00001903B78002B1AD03022524294469C444E
:10C9F0006246092A11D90A2B0AD1019B2418013356
:10CA00000193A14200DA2100002004000137E8E789
:10CA10000028FBD001340020F8E70120F6E76A4641
:10CA2000928809B212B23000FFF7A4FF33689C1D50
:10CA300003AB1F002A78002ACBD011003039092916
:10CA400003D81A7001330135F4E700221A70BB4293
:10CA5000F9D938000CF05BFD3B0020700134F2E79F
:10CA6000489A0200F0B5040089B006A80E000292B0
:10CA70001D00FCF735FA236802995A88914235DA8D
:10CA80009B889D4232DA1F2E30D9079B01939E422C
:10CA90002CDC0523002273430393069B0493039B22
:10CAA00004999B18A03BCB5C00210593AE18029B18
:10CAB000CF1823685888019087420EDA9888B042D0
:10CAC0000BDDDB1910270F41019870431B180598E7
:10CAD0000740781E87417F429F7101310529E6D1C9
:10CAE0000132052ADBD1002009B0F0BD0048FBE788
:10CAF00017FCFFFFF7B50468070063880E1E01935B
:10CB00001EDD994218DA0023063400933B68009A30
:10CB10009B889A4212DA019BA1199D1B2A002000D2
:10CB20000CF015FD601931000BF029F93B685B88AA
:10CB3000E418009B0133E8E70BF02FF9002000E038
:10CB40000048FEBD17FCFFFF10B50548054C2060EE
:10CB500009F032F9044A054920000CF0B4FC10BD7C
:10CB6000489A02000027002000200020717D02006A
:10CB700070B5002817D1114D2E68002E11D1083044
:10CB80000CF0ACFC066046600D4E04003368002BD0
:10CB900002D10BF000FC306023682C609B00F3583E
:10CBA0006360286870BD0122064907480B6813407E
:10CBB000F8D1026043600A60F4E7C046082700200D
:10CBC00014270020042700200C270020002370B524
:10CBD00004000160436099420AD1064D2B68002B86
:10CBE00002D10BF0D8FB286023689B00EB586360F0
:10CBF000200070BD14270020436810B50400002BEE
:10CC000002D104480CF071FB606803681B69984707
:10CC100010BDC046A8A80200436810B50400002B50
:10CC200002D104480CF061FB606803689B69984777
:10CC300010BDC046A8A80200436810B50400002B30
:10CC400002D104480CF051FB606803685B6A9847A6
:10CC500010BDC046A8A8020010B5040002F096FB63
:10CC6000034B1B68002B01D02000984710BDC04625
:10CC70001C270020F0B58BB0050001F0C9FD002095
:10CC800000F0FCFB036807001B6998473B68040041
:10CC90009B69380098473B6806005B6A38009847F4
:10CCA0000300288810380B2862D803F05BFD063E8D
:10CCB0006161615B616161676179AF882000390002
:10CCC0000BF059FF22006B7B583201931378A8793F
:10CCD0009C46022361460B43137004AB1F80012363
:10CCE00004AA9370D07013006A461279E91D9A72F3
:10CCF0002B000622163305A809930CF028FC290006
:10CD00000B2004AB06220E31C0180CF020FC94342A
:10CD10006368A360A06800282AD0C36804A9984764
:10CD2000A368002BF4D01B69F3E720002F49AF88DC
:10CD30000BF021FF2200022058321378A979834397
:10CD4000137004AB1F809970A0346368A360A0685F
:10CD500000280DD0C36804A99847A368002BF4D01D
:10CD60001B69F3E75B69A888A91D002B00D09847D1
:10CD7000290030000BF065FC0BB0F0BD636E002B9A
:10CD8000F6D0AF79A366A06E0028F1D0C368390051
:10CD90009847A36E002B01D1636EF3E71B69F1E79F
:10CDA000012269460D27AB7BEF571A4001925A07C3
:10CDB000920FDB080A720B730622E91D04A80CF01F
:10CDC000C6FB6A46127904ABDA716A46127A9F7121
:10CDD0001A726A46127B20005A722B000F33079397
:10CDE0008C348030236804A99847C1E7FFFF000016
:10CDF0000723D72802D9024B186000231800704778
:10CE000018270020014B18607047C0461C270020DF
:10CE10001FB58022A323D205DB00D3580820DB07EF
:10CE200000D405301C4B48221C4902F003FD0028A9
:10CE30000AD080B2002807D1BFF34F8F184B194A90
:10CE4000DA60BFF34F8FFEE7002302A8029301339D
:10CE50000370154B1B6843600BF05EF8002802D08E
:10CE6000072005B000BD68460BF054F80028F7D144
:10CE700069460BF04DF80028F2D10C4802F00AFD8B
:10CE800080B20028EDD10A4802F00EFD80B20028E1
:10CE9000E7D100F01FF8E4E71D7F02002027002003
:10CEA00000ED00E00400FA051827002075CC010011
:10CEB00059CC010080B2002807D1BFF34F8F034B3C
:10CEC000034ADA60BFF34F8FFEE7704700ED00E0E2
:10CED0000400FA051FB5002302ACA380104B01A883
:10CEE0000293C8235B00E380803BFF3B0370052275
:10CEF0000C490BF01FF880B200280FD18020800071
:10CF00000BF014F880B2002808D120000BF010F8C4
:10CF100080B2002802D10BF007F880B204B010BD37
:10CF200028009001CBA8020000487047FFFF0000D6
:10CF3000F0B597B00593036807AD1B6804910393A0
:10CF400011002B00060091C991C30024D368210071
:10CF50000C220CA8EB602C610CF015FB22000B4B93
:10CF600010940F9311AB1C70191901344A70102CD6
:10CF7000FAD15A820193059B2A00009304990CABC5
:10CF80003000039CA04717B0F0BDC0464F800200A0
:10CF900070B5FC30046C0500002C0DD124200CF081
:10CFA0009DFA064B44608361054B8460C460046154
:10CFB0004461C46103602864286C70BD249B020036
:10CFC0000C9C020070B5FC30C56B0400002D11D123
:10CFD00034200CF083FA084B85604360074B4561B1
:10CFE0000361074B0562C361064BC5628362064B52
:10CFF000E0630360E06B70BD549B0200449B020041
:10D00000B49B0200C49B0200D49B02007FB503794D
:10D010001548002B22D0154E154C33782000002BDC
:10D020001CD102AD28000AF0EFFF002810D16B8858
:10D03000592B0DD12B78AA88D91F012910D800921D
:10D040000C4A2021200007F04DFF0123337004E03B
:10D050002022094920000CF0DDFA200004B070BD48
:10D060000092064AEDE7C046D1A80200FF29002041
:10D07000DF290020F3A80200EBA8020010A902009B
:10D0800010B50400024B08C00BF09EF8200010BD44
:10D09000449B020010B50400024B08C00BF0A9F835
:10D0A000200010BD549B0200064B70B504000360C5
:10D0B0004068002804D005690CF00CFA2800F8E755
:10D0C000200070BD349B0200064B70B50400036065
:10D0D0004068002804D005690CF0FCF92800F8E746
:10D0E000200070BD649B0200064B70B50400036015
:10D0F0004068002804D005690CF0ECF92800F8E736
:10D10000200070BD749B0200064B70B504000360E4
:10D110004068002804D005690CF0DCF92800F8E725
:10D12000200070BDB49B0200064B70B50400036084
:10D130004068002804D005690CF0CCF92800F8E715
:10D14000200070BDC49B0200064B70B50400036054
:10D150004068002804D005690CF0BCF92800F8E705
:10D16000200070BD589A0200064B70B504000360A1
:10D170004068002804D005690CF0ACF92800F8E7F5
:10D18000200070BD689A0200064B70B50400036071
:10D190004068002804D005690CF09CF92800F8E7E5
:10D1A000200070BD789A0200064B70B50400036041
:10D1B0004068002804D005690CF08CF92800F8E7D5
:10D1C000200070BD889A0200064B70B50400036011
:10D1D0004068002804D005690CF07CF92800F8E7C5
:10D1E000200070BD249B020070B5FC30046C05006B
:10D1F000002C0DD124200CF071F9064B44608361A2
:10D20000054B8460C46004614461C46103602864A8
:10D21000286C70BD249B02000C9C0200104B10B5C2
:10D22000083303600F4B0400C36080230E4A5B0089
:10D23000C250C018FCF7D2FF20000C4BB830E3609E
:10D24000FFF7B2FF2000AC30FFF79EFF2000A030B8
:10D25000FFF78AFF20006C30FFF776FF200010BD3B
:10D26000389C0200B09C0200EC9D0200989A0200DB
:10D27000F8B505000400AC356B68AB60A868002801
:10D2800007D0C36821009847AB68002BF4D01B6916
:10D29000F3E72500B0352868002804D006690CF0B3
:10D2A00019F93000F8E72200FC2128605832137881
:10D2B0000B40137023005C33187020000A300BF011
:10D2C00061F8200034300BF05DF8606E002804D067
:10D2D00005690CF0FFF82800F8E72500983560662E
:10D2E0002868002804D006690CF0F4F83000F8E74C
:10D2F0002600A43628603568002D05D02F69280047
:10D300000CF0E8F83D00F7E72000356029000C221A
:10D310006C300CF038F92000074BE567A367290053
:10D320000C2280300CF02FF92300044A8C33903407
:10D3300028001A602560F8BD3380020025800200B5
:10D34000444AF0B50600C260A022434B16360833AB
:10D3500003600100002342820400320085B00371A3
:10D360008360037483823531137001329142FBD1A3
:10D37000802580222000AD00D201F3773584110092
:10D3800000933830002300F0D1FD2300210040330A
:10D3900003931A002B0000255F31157001328A4279
:10D3A000FBD1039AFC21D5772200603213801379D8
:10D3B00020000B401371230068331D70274B256735
:10D3C000E3660C22002178300CF0DDF82300270002
:10D3D00088331D60224B0837FB67843700210C22FD
:10D3E00038000CF0D0F81F4B1F4AFB602300A0331D
:10D3F0003D611A601D4A5D60DA601D4A1D619A61D7
:10D40000DD6130000AF0BEFF03980AF0BBFF194B44
:10D41000601CE3602300C4331D705D709D70FF309D
:10D4200002F094FB8C235B00E55023001933FF339B
:10D430005D618023104A5B00E2502300012220003E
:10D44000FE3352425A86023B9D63DD631D6405B084
:10D45000F0BDC046989A0200389C0200589A02001B
:10D460003380020025800200689A0200789A020048
:10D47000889A0200B09C0200EC9D020070B5074C37
:10D480002368002B07D1A02040000CF027F80500EE
:10D49000FFF756FF2560206870BDC0466827002052
:10D4A00070B50C220D00002104000CF06CF8002374
:10D4B0002361024B25602000E36070BD41800200C3
:10D4C00070B500250400254B85800360244BC560A2
:10D4D0008360244B85614361234B45620362234B88
:10D4E0000563C362224BC563836329004430FFF7A1
:10D4F000D7FF200029005830FFF7D2FF2000290075
:10D500006C30FFF7CDFF1B4B2200236023008032DD
:10D51000F83320C29342FCD126001D00E936FF36C5
:10D5200028000822002108350CF02DF8AE42F7D172
:10D530008E2300229B00E11804C6B142FCD18E2349
:10D5400000219B00E2540C4B0C4AE318A2181980EE
:10D5500002339A42FBD1200070BDC046849B02007A
:10D56000349B0200449B0200549B0200649B020017
:10D57000749B0200809C02003A02000062020000DC
:10D5800013B504680093A46813000A000149A0477A
:10D5900016BDC046FFFF000037B506AC257804680D
:10D5A00001950093246913000A000149A0473EBD7C
:10D5B000FFFF0000F0B587B00D00002469466F46FC
:10D5C00016004C800DAA0CA90988127839800193A5
:10D5D000A2421BD101004479F83194420DD908319F
:10D5E0000F00083F3F88B7421BD130212032920004
:10D5F00012580132D27F0A4215D16A463100280002
:10D600000AF04DFF002808D1062407E06A463100E1
:10D6100028000AF044FF002800D00324200007B0AF
:10D62000F0BD0132D9E710210A4051424A410020A1
:10D6300002ACE3600CABA360174B01322680A270F2
:10D64000A0809D4207D1FFF719FF03681B69984727
:10D650000BF094FA0500210028000AF024FF0024B2
:10D6600082B2A242DAD0112A13D00BD8082ACBD02A
:10D670006A46310028000AF012FF05240028CDD0A8
:10D68000023CCBE7054B9A4203D0054B9A42EFD1BF
:10D69000BAE70524C2E7C046FFFF000003300000E0
:10D6A00001340000F0B5050099B008002E240C915B
:10D6B00000F07EFA06ABE4181290220012A90120B5
:10D6C0000AF0EBFE002802D0032019B0F0BD238839
:10D6D0000C9A0B9093830C9B0B9A1B7D934200D862
:10D6E000C6E06B791D2B01D90720EEE70C9B9B69E7
:10D6F0000D930B9B0D9A9B009C586369002B07D1DF
:10D70000638B002B04D1631CDB7F022B00D1AAE0CA
:10D71000200000F04DFA23000026283312900E96C8
:10D720000D960F930F9B1B78B34221D9626AB30009
:10D730009F58342206AB9B1800221A700023002148
:10D7400013AAD21801335170102BF8D1462206AB20
:10D750009B184A4A13A938001A800AF023FF0028B0
:10D7600003D07B690D937B8B0E930136F6B2D9E71C
:10D770006979A31C1F31C9006918621CDB7FD27F45
:10D78000089121002A3109780020079121002931D0
:10D79000097806910E9905910D990491217F0391C5
:10D7A000218B0291618B01916169009112A90BF0AB
:10D7B00005FA002800D087E76B7907001A002032AD
:10D7C00092001F335451DB005B5BE3836B790133C1
:10D7D0006B71230028331B78BB4244D98E239B00F6
:10D7E000EB5C132B00D97FE7626ABB009E580023D5
:10D7F000180013A90B70CA1801335070102BFAD1FE
:10D800001E4B30004B820AF0CDFE0D90002827D130
:10D81000300000F0CDF98E2189006A5C738B1E32D6
:10D82000FF325200AA180292327F12900192328B7C
:10D8300012A9009272690D9800F00AFA002800D02F
:10D8400042E78E2189006A5C531CDBB26B541D33A6
:10D850007A32FF3392005B005651EB185B88F383FA
:10D860000137FFB2B5E70B980130C3B20B9332E733
:10D870002B79002001332B7127E7C04601290000D6
:10D8800070B505000AF0ACFD04000620002C1CD188
:10D8900028007822210080300BF075FE2800E93046
:10D8A00050222100FF300BF06EFE280008222100DC
:10D8B000F8300BF068FE054B2822E81821000BF029
:10D8C00062FE8E2320009B00EC5470BD3A020000E3
:10D8D000024B0B60092313607047C04635A9020054
:10D8E00010B504000020FFF7C9FD03681B699847C5
:10D8F0000300F3331C7086235B00C050030000213B
:10D90000044AFC335A61044A99615A62F4300BF0BC
:10D9100054FB10BD338A0200458A0200012110B574
:10D92000044A080001F068F90023984200D00B3344
:10D93000180010BDE1D80100F0B593B001900020AF
:10D940000C00FFF79BFD03685B6A984700F008FA3C
:10D9500006AB00280ED000221A7105AA06920822F2
:10D9600018001A730AAA9A6000F0C8FA002803D0B7
:10D9700013B0F0BD18711873002727732771019B2E
:10D98000BA331B78BB4242D907237B431A00019963
:10D99000BB32CB18BB331B788A180292022B2ED1D4
:10D9A000002506AE337BAB4223D9AB000393089B23
:10D9B000AA00995802980BF0AFF900281CD0B36860
:10D9C0009C46AB001900237B614402939A000868CF
:10D9D000A368D050029B01332373337B5A1E9542B8
:10D9E00005D00C481B1860469B001B580B6006AB0B
:10D9F0001A730137FFB2C2E70135EDB2D1E72379DF
:10DA0000216802989A00013350502371F1E70020F9
:10DA1000AEE7C046FFFFFF3FF0B50A7804009BB0B9
:10DA20000D000220012A08D04B88032A07D1A03B11
:10DA300021499BB210008B4207D91BB0F0BD203B9F
:10DA40001E4A9BB203209342F7D81D4BAA8803209D
:10DA50009A42F2D80AAB009312AB02936A460023B3
:10DA6000260013711373B8363378002B1DD104AF21
:10DA70001822002138000BF086FD2B7838003B700F
:10DA800033783B726B46FB606B883B82AB887B8252
:10DA90000AF0F3FE02000320002ACED101235834FD
:10DAA000217810000B432370C7E769462000FFF779
:10DAB00043FF0028DBD0C0E7603F0000E03F0000EC
:10DAC000FF3F0000F0B59DB01E006B4604001A70C9
:10DAD000581C0622229D0BF03AFD002E2ED03288D3
